{
  "_format": "hh-sol-artifact-1",
  "contractName": "HerbTraceability",
  "sourceName": "contracts/HerbTraceability.sol",
  "abi": [
    {
      "anonymous": false,
      "inputs": [
        {
          "indexed": true,
          "internalType": "string",
          "name": "herbId",
          "type": "string"
        },
        {
          "indexed": false,
          "internalType": "string",
          "name": "name",
          "type": "string"
        },
        {
          "indexed": false,
          "internalType": "string",
          "name": "collector",
          "type": "string"
        },
        {
          "indexed": false,
          "internalType": "uint256",
          "name": "timestamp",
          "type": "uint256"
        }
      ],
      "name": "HerbAdded",
      "type": "event"
    },
    {
      "anonymous": false,
      "inputs": [
        {
          "indexed": true,
          "internalType": "string",
          "name": "herbId",
          "type": "string"
        },
        {
          "indexed": false,
          "internalType": "string",
          "name": "newStatus",
          "type": "string"
        },
        {
          "indexed": false,
          "internalType": "uint256",
          "name": "timestamp",
          "type": "uint256"
        }
      ],
      "name": "StatusUpdated",
      "type": "event"
    },
    {
      "inputs": [
        {
          "internalType": "string",
          "name": "herbId",
          "type": "string"
        },
        {
          "internalType": "string",
          "name": "name",
          "type": "string"
        },
        {
          "internalType": "string",
          "name": "collector",
          "type": "string"
        },
        {
          "internalType": "string",
          "name": "geoTag",
          "type": "string"
        },
        {
          "internalType": "string",
          "name": "status",
          "type": "string"
        }
      ],
      "name": "addHerb",
      "outputs": [],
      "stateMutability": "nonpayable",
      "type": "function"
    },
    {
      "inputs": [
        {
          "internalType": "uint256",
          "name": "",
          "type": "uint256"
        }
      ],
      "name": "allHerbIds",
      "outputs": [
        {
          "internalType": "string",
          "name": "",
          "type": "string"
        }
      ],
      "stateMutability": "view",
      "type": "function"
    },
    {
      "inputs": [],
      "name": "getAllHerbIds",
      "outputs": [
        {
          "internalType": "string[]",
          "name": "",
          "type": "string[]"
        }
      ],
      "stateMutability": "view",
      "type": "function"
    },
    {
      "inputs": [
        {
          "internalType": "string",
          "name": "herbId",
          "type": "string"
        },
        {
          "internalType": "uint256",
          "name": "index",
          "type": "uint256"
        }
      ],
      "name": "getHerbAtIndex",
      "outputs": [
        {
          "components": [
            {
              "internalType": "string",
              "name": "herbId",
              "type": "string"
            },
            {
              "internalType": "string",
              "name": "name",
              "type": "string"
            },
            {
              "internalType": "string",
              "name": "collector",
              "type": "string"
            },
            {
              "internalType": "string",
              "name": "geoTag",
              "type": "string"
            },
            {
              "internalType": "string",
              "name": "status",
              "type": "string"
            },
            {
              "internalType": "uint256",
              "name": "timestamp",
              "type": "uint256"
            }
          ],
          "internalType": "struct HerbTraceability.Herb",
          "name": "",
          "type": "tuple"
        }
      ],
      "stateMutability": "view",
      "type": "function"
    },
    {
      "inputs": [
        {
          "internalType": "string",
          "name": "herbId",
          "type": "string"
        }
      ],
      "name": "getHerbHistory",
      "outputs": [
        {
          "components": [
            {
              "internalType": "string",
              "name": "herbId",
              "type": "string"
            },
            {
              "internalType": "string",
              "name": "name",
              "type": "string"
            },
            {
              "internalType": "string",
              "name": "collector",
              "type": "string"
            },
            {
              "internalType": "string",
              "name": "geoTag",
              "type": "string"
            },
            {
              "internalType": "string",
              "name": "status",
              "type": "string"
            },
            {
              "internalType": "uint256",
              "name": "timestamp",
              "type": "uint256"
            }
          ],
          "internalType": "struct HerbTraceability.Herb[]",
          "name": "",
          "type": "tuple[]"
        }
      ],
      "stateMutability": "view",
      "type": "function"
    },
    {
      "inputs": [
        {
          "internalType": "string",
          "name": "herbId",
          "type": "string"
        }
      ],
      "name": "getHistoryCount",
      "outputs": [
        {
          "internalType": "uint256",
          "name": "",
          "type": "uint256"
        }
      ],
      "stateMutability": "view",
      "type": "function"
    },
    {
      "inputs": [
        {
          "internalType": "string",
          "name": "herbId",
          "type": "string"
        }
      ],
      "name": "getLatestStatus",
      "outputs": [
        {
          "components": [
            {
              "internalType": "string",
              "name": "herbId",
              "type": "string"
            },
            {
              "internalType": "string",
              "name": "name",
              "type": "string"
            },
            {
              "internalType": "string",
              "name": "collector",
              "type": "string"
            },
            {
              "internalType": "string",
              "name": "geoTag",
              "type": "string"
            },
            {
              "internalType": "string",
              "name": "status",
              "type": "string"
            },
            {
              "internalType": "uint256",
              "name": "timestamp",
              "type": "uint256"
            }
          ],
          "internalType": "struct HerbTraceability.Herb",
          "name": "",
          "type": "tuple"
        }
      ],
      "stateMutability": "view",
      "type": "function"
    },
    {
      "inputs": [],
      "name": "getTotalHerbs",
      "outputs": [
        {
          "internalType": "uint256",
          "name": "",
          "type": "uint256"
        }
      ],
      "stateMutability": "view",
      "type": "function"
    },
    {
      "inputs": [
        {
          "internalType": "string",
          "name": "",
          "type": "string"
        }
      ],
      "name": "herbExists",
      "outputs": [
        {
          "internalType": "bool",
          "name": "",
          "type": "bool"
        }
      ],
      "stateMutability": "view",
      "type": "function"
    },
    {
      "inputs": [
        {
          "internalType": "string",
          "name": "",
          "type": "string"
        },
        {
          "internalType": "uint256",
          "name": "",
          "type": "uint256"
        }
      ],
      "name": "herbHistory",
      "outputs": [
        {
          "internalType": "string",
          "name": "herbId",
          "type": "string"
        },
        {
          "internalType": "string",
          "name": "name",
          "type": "string"
        },
        {
          "internalType": "string",
          "name": "collector",
          "type": "string"
        },
        {
          "internalType": "string",
          "name": "geoTag",
          "type": "string"
        },
        {
          "internalType": "string",
          "name": "status",
          "type": "string"
        },
        {
          "internalType": "uint256",
          "name": "timestamp",
          "type": "uint256"
        }
      ],
      "stateMutability": "view",
      "type": "function"
    },
    {
      "inputs": [
        {
          "internalType": "string",
          "name": "status",
          "type": "string"
        }
      ],
      "name": "isValidStatus",
      "outputs": [
        {
          "internalType": "bool",
          "name": "",
          "type": "bool"
        }
      ],
      "stateMutability": "pure",
      "type": "function"
    },
    {
      "inputs": [
        {
          "internalType": "string",
          "name": "herbId",
          "type": "string"
        },
        {
          "internalType": "string",
          "name": "newStatus",
          "type": "string"
        }
      ],
      "name": "updateStatus",
      "outputs": [],
      "stateMutability": "nonpayable",
      "type": "function"
    }
  ],
  "bytecode": "0x608060405234801561001057600080fd5b5061244b806100206000396000f3fe608060405234801561001057600080fd5b50600436106100b45760003560e01c80639bfdb546116100715780639bfdb54614610178578063b2c0009c1461018d578063bb27708014610195578063cc1eff93146101b5578063cca42536146101c8578063fa2faf32146101ed57600080fd5b80630d8c45ed146100b95780631617f59f146100ce578063347047cc146100f4578063700863a91461010757806371411d0d14610145578063730621e714610158575b600080fd5b6100cc6100c7366004611de7565b61020d565b005b6100e16100dc366004611eb9565b6105a0565b6040519081526020015b60405180910390f35b6100cc610102366004611ef6565b610607565b610135610115366004611eb9565b805160208183018101805160018252928201919093012091525460ff1681565b60405190151581526020016100eb565b610135610153366004611eb9565b610b36565b61016b610166366004611eb9565b610cb4565b6040516100eb919061203d565b610180611054565b6040516100eb919061209f565b6002546100e1565b6101a86101a3366004611eb9565b61112d565b6040516100eb91906120f4565b6101a86101c336600461210e565b611578565b6101db6101d636600461210e565b611988565b6040516100eb96959493929190612153565b6102006101fb3660046121c8565b611c98565b6040516100eb91906121e1565b60008551116102635760405162461bcd60e51b815260206004820152601760248201527f486572622049442063616e6e6f7420626520656d70747900000000000000000060448201526064015b60405180910390fd5b60008451116102ab5760405162461bcd60e51b81526020600482015260146024820152734e616d652063616e6e6f7420626520656d70747960601b604482015260640161025a565b60008351116102fc5760405162461bcd60e51b815260206004820152601960248201527f436f6c6c6563746f722063616e6e6f7420626520656d70747900000000000000604482015260640161025a565b60008251116103465760405162461bcd60e51b815260206004820152601660248201527547656f5461672063616e6e6f7420626520656d70747960501b604482015260640161025a565b60008151116103905760405162461bcd60e51b81526020600482015260166024820152755374617475732063616e6e6f7420626520656d70747960501b604482015260640161025a565b6001856040516103a091906121f4565b9081526040519081900360200190205460ff16156104005760405162461bcd60e51b815260206004820181905260248201527f486572622077697468207468697320494420616c726561647920657869737473604482015260640161025a565b60006040518060c0016040528087815260200186815260200185815260200184815260200183815260200142815250905060008660405161044191906121f4565b9081526040516020918190038201902080546001810182556000918252919020825183926006029091019081906104789082612299565b506020820151600182019061048d9082612299565b50604082015160028201906104a29082612299565b50606082015160038201906104b79082612299565b50608082015160048201906104cc9082612299565b5060a082015181600501555050600180876040516104ea91906121f4565b908152604051908190036020019020805491151560ff19909216919091179055600280546001810182556000919091527f405787fa12a823e0f2b7631cc41b3ba8828b3321ca811111fa75cd3aa3bb5ace016105468782612299565b508560405161055591906121f4565b60405180910390207fa3b182c6ecf297df91fbe2df88ea410cbc3422e79074adbdfe1ce387035edef186864260405161059093929190612359565b60405180910390a2505050505050565b60006001826040516105b291906121f4565b9081526040519081900360200190205460ff166105e15760405162461bcd60e51b815260040161025a9061238f565b6000826040516105f191906121f4565b9081526040519081900360200190205492915050565b60018260405161061791906121f4565b9081526040519081900360200190205460ff166106465760405162461bcd60e51b815260040161025a9061238f565b60008151116106905760405162461bcd60e51b81526020600482015260166024820152755374617475732063616e6e6f7420626520656d70747960501b604482015260640161025a565b600080836040516106a191906121f4565b90815260405190819003602001902080549091506106f95760405162461bcd60e51b8152602060048201526015602482015274139bc81a195c98881a1a5cdd1bdc9e48199bdd5b99605a1b604482015260640161025a565b8054600090829061070c906001906123bc565b8154811061071c5761071c6123dd565b90600052602060002090600602016040518060c001604052908160008201805461074590612210565b80601f016020809104026020016040519081016040528092919081815260200182805461077190612210565b80156107be5780601f10610793576101008083540402835291602001916107be565b820191906000526020600020905b8154815290600101906020018083116107a157829003601f168201915b505050505081526020016001820180546107d790612210565b80601f016020809104026020016040519081016040528092919081815260200182805461080390612210565b80156108505780601f1061082557610100808354040283529160200191610850565b820191906000526020600020905b81548152906001019060200180831161083357829003601f168201915b5050505050815260200160028201805461086990612210565b80601f016020809104026020016040519081016040528092919081815260200182805461089590612210565b80156108e25780601f106108b7576101008083540402835291602001916108e2565b820191906000526020600020905b8154815290600101906020018083116108c557829003601f168201915b505050505081526020016003820180546108fb90612210565b80601f016020809104026020016040519081016040528092919081815260200182805461092790612210565b80156109745780601f1061094957610100808354040283529160200191610974565b820191906000526020600020905b81548152906001019060200180831161095757829003601f168201915b5050505050815260200160048201805461098d90612210565b80601f01602080910402602001604051908101604052809291908181526020018280546109b990612210565b8015610a065780601f106109db57610100808354040283529160200191610a06565b820191906000526020600020905b8154815290600101906020018083116109e957829003601f168201915b5050509183525050600591909101546020918201526040805160c0810182528781528383015181840152818401519181019190915260608084015190820152608081018690524260a08201528454600181018655600086815292909220815193945090928392600602909101908190610a7f9082612299565b5060208201516001820190610a949082612299565b5060408201516002820190610aa99082612299565b5060608201516003820190610abe9082612299565b5060808201516004820190610ad39082612299565b5060a08201518160050155505084604051610aee91906121f4565b60405180910390207febaa90c622578c1690836a6f8f46de08913df35f09f88e73a2f03a6db1cd70f28542604051610b279291906123f3565b60405180910390a25050505050565b6040516810dbdb1b1958dd195960ba1b60208201526000906029016040516020818303038152906040528051906020012082604051602001610b7891906121f4565b604051602081830303815290604052805190602001201480610bed57506040516950726f63657373696e6760b01b6020820152602a016040516020818303038152906040528051906020012082604051602001610bd591906121f4565b60405160208183030381529060405280519060200120145b80610c49575060405167141858dad859d95960c21b60208201526028016040516020818303038152906040528051906020012082604051602001610c3191906121f4565b60405160208183030381529060405280519060200120145b80610cae5750604051702334b730b6102337b936bab630ba34b7b760791b60208201526031016040516020818303038152906040528051906020012082604051602001610c9691906121f4565b60405160208183030381529060405280519060200120145b92915050565b6060600182604051610cc691906121f4565b9081526040519081900360200190205460ff16610cf55760405162461bcd60e51b815260040161025a9061238f565b600082604051610d0591906121f4565b9081526020016040518091039020805480602002602001604051908101604052809291908181526020016000905b8282101561104957838290600052602060002090600602016040518060c0016040529081600082018054610d6690612210565b80601f0160208091040260200160405190810160405280929190818152602001828054610d9290612210565b8015610ddf5780601f10610db457610100808354040283529160200191610ddf565b820191906000526020600020905b815481529060010190602001808311610dc257829003601f168201915b50505050508152602001600182018054610df890612210565b80601f0160208091040260200160405190810160405280929190818152602001828054610e2490612210565b8015610e715780601f10610e4657610100808354040283529160200191610e71565b820191906000526020600020905b815481529060010190602001808311610e5457829003601f168201915b50505050508152602001600282018054610e8a90612210565b80601f0160208091040260200160405190810160405280929190818152602001828054610eb690612210565b8015610f035780601f10610ed857610100808354040283529160200191610f03565b820191906000526020600020905b815481529060010190602001808311610ee657829003601f168201915b50505050508152602001600382018054610f1c90612210565b80601f0160208091040260200160405190810160405280929190818152602001828054610f4890612210565b8015610f955780601f10610f6a57610100808354040283529160200191610f95565b820191906000526020600020905b815481529060010190602001808311610f7857829003601f168201915b50505050508152602001600482018054610fae90612210565b80601f0160208091040260200160405190810160405280929190818152602001828054610fda90612210565b80156110275780601f10610ffc57610100808354040283529160200191611027565b820191906000526020600020905b81548152906001019060200180831161100a57829003601f168201915b5050505050815260200160058201548152505081526020019060010190610d33565b505050509050919050565b60606002805480602002602001604051908101604052809291908181526020016000905b8282101561112457838290600052602060002001805461109790612210565b80601f01602080910402602001604051908101604052809291908181526020018280546110c390612210565b80156111105780601f106110e557610100808354040283529160200191611110565b820191906000526020600020905b8154815290600101906020018083116110f357829003601f168201915b505050505081526020019060010190611078565b50505050905090565b6111666040518060c001604052806060815260200160608152602001606081526020016060815260200160608152602001600081525090565b60018260405161117691906121f4565b9081526040519081900360200190205460ff166111a55760405162461bcd60e51b815260040161025a9061238f565b600080836040516111b691906121f4565b9081526020016040518091039020805480602002602001604051908101604052809291908181526020016000905b828210156114fa57838290600052602060002090600602016040518060c001604052908160008201805461121790612210565b80601f016020809104026020016040519081016040528092919081815260200182805461124390612210565b80156112905780601f1061126557610100808354040283529160200191611290565b820191906000526020600020905b81548152906001019060200180831161127357829003601f168201915b505050505081526020016001820180546112a990612210565b80601f01602080910402602001604051908101604052809291908181526020018280546112d590612210565b80156113225780601f106112f757610100808354040283529160200191611322565b820191906000526020600020905b81548152906001019060200180831161130557829003601f168201915b5050505050815260200160028201805461133b90612210565b80601f016020809104026020016040519081016040528092919081815260200182805461136790612210565b80156113b45780601f10611389576101008083540402835291602001916113b4565b820191906000526020600020905b81548152906001019060200180831161139757829003601f168201915b505050505081526020016003820180546113cd90612210565b80601f01602080910402602001604051908101604052809291908181526020018280546113f990612210565b80156114465780601f1061141b57610100808354040283529160200191611446565b820191906000526020600020905b81548152906001019060200180831161142957829003601f168201915b5050505050815260200160048201805461145f90612210565b80601f016020809104026020016040519081016040528092919081815260200182805461148b90612210565b80156114d85780601f106114ad576101008083540402835291602001916114d8565b820191906000526020600020905b8154815290600101906020018083116114bb57829003601f168201915b50505050508152602001600582015481525050815260200190600101906111e4565b50505050905060008151116115495760405162461bcd60e51b8152602060048201526015602482015274139bc81a195c98881a1a5cdd1bdc9e48199bdd5b99605a1b604482015260640161025a565b806001825161155891906123bc565b81518110611568576115686123dd565b6020026020010151915050919050565b6115b16040518060c001604052806060815260200160608152602001606081526020016060815260200160608152602001600081525090565b6001836040516115c191906121f4565b9081526040519081900360200190205460ff166115f05760405162461bcd60e51b815260040161025a9061238f565b60008360405161160091906121f4565b9081526040519081900360200190205482106116545760405162461bcd60e51b8152602060048201526013602482015272496e646578206f7574206f6620626f756e647360681b604482015260640161025a565b60008360405161166491906121f4565b90815260200160405180910390208281548110611683576116836123dd565b90600052602060002090600602016040518060c00160405290816000820180546116ac90612210565b80601f01602080910402602001604051908101604052809291908181526020018280546116d890612210565b80156117255780601f106116fa57610100808354040283529160200191611725565b820191906000526020600020905b81548152906001019060200180831161170857829003601f168201915b5050505050815260200160018201805461173e90612210565b80601f016020809104026020016040519081016040528092919081815260200182805461176a90612210565b80156117b75780601f1061178c576101008083540402835291602001916117b7565b820191906000526020600020905b81548152906001019060200180831161179a57829003601f168201915b505050505081526020016002820180546117d090612210565b80601f01602080910402602001604051908101604052809291908181526020018280546117fc90612210565b80156118495780601f1061181e57610100808354040283529160200191611849565b820191906000526020600020905b81548152906001019060200180831161182c57829003601f168201915b5050505050815260200160038201805461186290612210565b80601f016020809104026020016040519081016040528092919081815260200182805461188e90612210565b80156118db5780601f106118b0576101008083540402835291602001916118db565b820191906000526020600020905b8154815290600101906020018083116118be57829003601f168201915b505050505081526020016004820180546118f490612210565b80601f016020809104026020016040519081016040528092919081815260200182805461192090612210565b801561196d5780601f106119425761010080835404028352916020019161196d565b820191906000526020600020905b81548152906001019060200180831161195057829003601f168201915b50505050508152602001600582015481525050905092915050565b815160208184018101805160008252928201918501919091209190528054829081106119b357600080fd5b9060005260206000209060060201600091509150508060000180546119d790612210565b80601f0160208091040260200160405190810160405280929190818152602001828054611a0390612210565b8015611a505780601f10611a2557610100808354040283529160200191611a50565b820191906000526020600020905b815481529060010190602001808311611a3357829003601f168201915b505050505090806001018054611a6590612210565b80601f0160208091040260200160405190810160405280929190818152602001828054611a9190612210565b8015611ade5780601f10611ab357610100808354040283529160200191611ade565b820191906000526020600020905b815481529060010190602001808311611ac157829003601f168201915b505050505090806002018054611af390612210565b80601f0160208091040260200160405190810160405280929190818152602001828054611b1f90612210565b8015611b6c5780601f10611b4157610100808354040283529160200191611b6c565b820191906000526020600020905b815481529060010190602001808311611b4f57829003601f168201915b505050505090806003018054611b8190612210565b80601f0160208091040260200160405190810160405280929190818152602001828054611bad90612210565b8015611bfa5780601f10611bcf57610100808354040283529160200191611bfa565b820191906000526020600020905b815481529060010190602001808311611bdd57829003601f168201915b505050505090806004018054611c0f90612210565b80601f0160208091040260200160405190810160405280929190818152602001828054611c3b90612210565b8015611c885780601f10611c5d57610100808354040283529160200191611c88565b820191906000526020600020905b815481529060010190602001808311611c6b57829003601f168201915b5050505050908060050154905086565b60028181548110611ca857600080fd5b906000526020600020016000915090508054611cc390612210565b80601f0160208091040260200160405190810160405280929190818152602001828054611cef90612210565b8015611d3c5780601f10611d1157610100808354040283529160200191611d3c565b820191906000526020600020905b815481529060010190602001808311611d1f57829003601f168201915b505050505081565b634e487b7160e01b600052604160045260246000fd5b600082601f830112611d6b57600080fd5b813567ffffffffffffffff80821115611d8657611d86611d44565b604051601f8301601f19908116603f01168101908282118183101715611dae57611dae611d44565b81604052838152866020858801011115611dc757600080fd5b836020870160208301376000602085830101528094505050505092915050565b600080600080600060a08688031215611dff57600080fd5b853567ffffffffffffffff80821115611e1757600080fd5b611e2389838a01611d5a565b96506020880135915080821115611e3957600080fd5b611e4589838a01611d5a565b95506040880135915080821115611e5b57600080fd5b611e6789838a01611d5a565b94506060880135915080821115611e7d57600080fd5b611e8989838a01611d5a565b93506080880135915080821115611e9f57600080fd5b50611eac88828901611d5a565b9150509295509295909350565b600060208284031215611ecb57600080fd5b813567ffffffffffffffff811115611ee257600080fd5b611eee84828501611d5a565b949350505050565b60008060408385031215611f0957600080fd5b823567ffffffffffffffff80821115611f2157600080fd5b611f2d86838701611d5a565b93506020850135915080821115611f4357600080fd5b50611f5085828601611d5a565b9150509250929050565b60005b83811015611f75578181015183820152602001611f5d565b50506000910152565b60008151808452611f96816020860160208601611f5a565b601f01601f19169290920160200192915050565b6000815160c08452611fbf60c0850182611f7e565b905060208301518482036020860152611fd88282611f7e565b91505060408301518482036040860152611ff28282611f7e565b9150506060830151848203606086015261200c8282611f7e565b915050608083015184820360808601526120268282611f7e565b91505060a083015160a08501528091505092915050565b6000602080830181845280855180835260408601915060408160051b870101925083870160005b8281101561209257603f19888603018452612080858351611faa565b94509285019290850190600101612064565b5092979650505050505050565b6000602080830181845280855180835260408601915060408160051b870101925083870160005b8281101561209257603f198886030184526120e2858351611f7e565b945092850192908501906001016120c6565b6020815260006121076020830184611faa565b9392505050565b6000806040838503121561212157600080fd5b823567ffffffffffffffff81111561213857600080fd5b61214485828601611d5a565b95602094909401359450505050565b60c08152600061216660c0830189611f7e565b82810360208401526121788189611f7e565b9050828103604084015261218c8188611f7e565b905082810360608401526121a08187611f7e565b905082810360808401526121b48186611f7e565b9150508260a0830152979650505050505050565b6000602082840312156121da57600080fd5b5035919050565b6020815260006121076020830184611f7e565b60008251612206818460208701611f5a565b9190910192915050565b600181811c9082168061222457607f821691505b60208210810361224457634e487b7160e01b600052602260045260246000fd5b50919050565b601f82111561229457600081815260208120601f850160051c810160208610156122715750805b601f850160051c820191505b818110156122905782815560010161227d565b5050505b505050565b815167ffffffffffffffff8111156122b3576122b3611d44565b6122c7816122c18454612210565b8461224a565b602080601f8311600181146122fc57600084156122e45750858301515b600019600386901b1c1916600185901b178555612290565b600085815260208120601f198616915b8281101561232b5788860151825594840194600190910190840161230c565b50858210156123495787850151600019600388901b60f8161c191681555b5050505050600190811b01905550565b60608152600061236c6060830186611f7e565b828103602084015261237e8186611f7e565b915050826040830152949350505050565b60208082526013908201527212195c9888191bd95cc81b9bdd08195e1a5cdd606a1b604082015260600190565b81810381811115610cae57634e487b7160e01b600052601160045260246000fd5b634e487b7160e01b600052603260045260246000fd5b6040815260006124066040830185611f7e565b9050826020830152939250505056fea264697066735822122011031cdc4904078c366f75cdc9d7f6aee37269573bf0323692669fd43b26f76364736f6c63430008120033",
  "linkReferences": {},
  "deployedLinkReferences": {}
}